:100415005352573030352C0030312E3072002C00BD
:1004250030312E3472002C45440D0A00455A4C6972
:100435006E6B2064656D6F2000383638004D487A44
:100445000D0A0053696C69636F6E204C61626F72AF
:1004550061746F726965732C20323031300D0A007A
:100465007777772E73696C6162732E636F6D0D0AF2
:100475000053693434323120636F6D706174696281
:100485006C65206D6F64650D0A000A0D4F4B0A0DF2
:100495003E0A0D000A0D463D6E203A205365742034
:1004A500746865207266206368616E6E656C000A0B
:1004B5000D2009322E34206B6270733B2063686116
:1004C5006E6E656C206E756D6265723A302D3133D6
:1004D500000A0D2009342E38206B6270733B2063AF
:1004E50068616E6E656C206E756D6265723A302D51
:1004F5003133000A0D2009392E36206B6270733BAB
:10050500206368616E6E656C206E756D6265723A0A
:10051500302D3133000A0D200931392E32206B621E
:1005250070733B206368616E6E656C206E756D62DD
:1005350065723A302D3130000A0D200933382E34DA
:10054500206B6270733B206368616E6E656C206E14
:10055500756D6265723A302D39000A0D20093537FF
:100565002E36206B6270733B206368616E6E656C1E
:10057500206E756D6265723A302D37000A0D2009BF
:100585003131352E32206B6270733B206368616EAA
:100595006E656C206E756D6265723A302D35000A98
:1005A5000D443D6E203A20536574207468652072B1
:1005B50066206461746172617465202830202D2085
:1005C5003629000A0D0930202D2044523A20322EBA
:1005D500346B6270732C204445563A202B2D3336EC
:1005E5006B487A2C20424242573A2037352E326BDF
:1005F500487A000A0D0931202D2044523A20342E24
:10060500386B6270732C204445563A202B2D3435B7
:100615006B487A2C20424242573A2039352E336BAB
:10062500487A000A0D0932202D2044523A20392EED
:10063500366B6270732C204445563A202B2D343589
:100645006B487A2C20424242573A2039392E366B74
:10065500487A000A0D0933202D2044523A203139B9
:100665002E326B6270732C204445563A202B2D395F
:100675002E366B487A2C20424242573A2032382E89
:10068500386B487A000A0D0934202D2044523A204F
:1006950033382E346B6270732C204445563A202B28
:1006A5002D31392E326B487A2C20424242573A205E
:1006B50035372E366B487A000A0D0935202D204432
:1006C500523A2035372E366B6270732C20444556CE
:1006D5003A202B2D32382E386B487A2C2042424254
:1006E500573A2038362E346B487A000A0D093620E1
:1006F5002D2044523A203131352E326B6270732CE5
:10070500204445563A202B2D35372E366B487A2C0A
:1007150020424242573A203137322E386B487A0010
:100725000A0D503D6E203A2053657420746865208B
:100735007266206F757470757420706F77657200BE
:100745000A0D2020202020205369343433313A20EB
:10075500302D3720282D3864426D2C2D3564426D9F
:100765002C2D3264426D2C2B3164426D2C2B34645C
:10077500426D2C2B3764426D2C2B313064426D2C2D
:100785002B313364426D29000A0D202020202020C2
:100795005369343433323A20302D3720282B3164D5
:1007A500426D2C2B3264426D2C2B3564426D2C2B03
:1007B5003864426D2C2B313164426D2C2B313464FD
:1007C500426D2C2B313764426D2C2B323064426DD7
:1007D50029000A0D533F20203A205072696E74207B
:1007E5007468652063757272656E742073657474C0
:1007F500696E6773000A0D492020203A20507269FE
:100805006E74206669726D776172652076657273A4
:10081500696F6E20696E666F726D6174696F6E00C7
:1008250028302D313329000A0D524620706172613E
:100835006D65746572733A000A0D0944523A2039A0
:100845002E366B6270732C204445563A202B2D3979
:10085500306B487A2C20424242573A3138342E3890
:100865006B487A000A0D503D6E203A20536574207E
:10087500746865207266206F757470757420706F6A
:10088500776572202830202D20333B202B313164B1
:10089500426D2C202B313464426D2C202B31376472
:1008A500426D2C202B323064426D29000D0A4368BD
:1008B500616E6E656C203A20256264000D0A446104
:1008C5007461726174653A20256264002844523A65
:1008D50020322E346B6270732C204445563A202BFF
:1008E5002D33366B487A2C20424242573A20373511
:1008F5002E326B487A29002844523A20392E366B1D
:100905006270732C204445563A202B2D39306B48A4
:100915007A2C20424242573A3138342E386B487A85
:1009250029002844523A20342E386B6270732C20EB
:100935004445563A202B2D34356B487A2C204242BB
:1009450042573A2039352E336B487A2900284452CC
:100955003A20392E366B6270732C204445563A2066
:100965002B2D34356B487A2C20424242573A203998
:10097500392E362E386B487A29002844523A2031D0
:10098500392E326B6270732C204445563A202B2D3C
:10099500392E366B487A2C20424242573A2032385B
:1009A5002E386B487A29002844523A2033382E34A1
:1009B5006B6270732C204445563A202B2D31392E0D
:1009C500326B487A2C20424242573A2035372E3630
:1009D5006B487A29002844523A2035372E366B6207
:1009E50070732C204445563A202B2D32382E386B07
:1009F500487A2C20424242573A2038362E346B48EA
:100A05007A29002844523A203131352E326B6270F2
:100A1500732C204445563A202B2D35372E366B48FE
:100A25007A2C20424242573A203137322E386B48D1
:100A35007A29000D0A524620706F7765723A202593
:100A45006264000D0A4552524F520D0A3E0D0A00CE
:061EFF00E4900038F0221F
:1019ED00900035E07BFF7A0479157041120AB77BC0
:1019FD00FF7A04791D120AB77BFF7A047923120A44
:101A0D00B77BFF7A047925120AB77BFF7A04792B0D
:101A1D00120AB77BFF7A047931120AB77BFF7A0479
:101A2D00793E120AB77BFF7A0479428048120AB7D1
:101A3D007BFF7A04791D120AB77BFF7A0479231292
:101A4D000AB77BFF7A047925120AB77BFF7A0479EE
:101A5D002B120AB77BFF7A047931120AB77BFF7A12
:101A6D0004793E120AB77BFF7A047942120AB77BDA
:101A7D00FF7A047976120AB77BFF7A047948120A45
:0B1A8D00B77BFF7A047965120AB722CC
:091EF6007BFF7A04798F020AB720
:1018FD00900035E07BFF7A04799960030219B012EC
:10190D000AB77BFF7A0479B4120AB77BFF7A0479A0
:10191D00D6120AB77BFF7A0479F8120AB77BFF7AE1
:10192D0005791A120AB77BFF7A05793D120AB77B42
:10193D00FF7A05795F120AB77BFF7A057981120A62
:10194D00B77BFF7A0579A4120AB77BFF7A0579C8B0
:10195D00120AB77BFF7A0579F8120AB77BFF7A0670
:10196D007928120AB77BFF7A067958120AB77BFFDE
:10197D007A06798A120AB77BFF7A0679BD120AB701
:10198D007BFF7A0679F0120AB77BFF7A0779251269
:10199D000AB77BFF7A077945120AB77BFF7A077979
:1019AD008D8024120AB77BFF7A087925120AB77B3E
:1019BD00FF7A08792C120AB77BFF7A08793D120A53
:1019CD00B77BFF7A087969120AB77BFF7A0779D757
:1019DD00120AB77BFF7A0779FA120AB7121EF6229E
:101372008F08E508640A70030215C9E50864207045
:10138200030215C9900038E0120E1F13AC001419A5
:101392000114270214350314E90A152614156E1ECA
:1013A20015B12815BBFF000015C9E508120E1F1361
:1013B200DF0D13E23F140F4313FE4413F74613E904
:1013C2004914055013F053140F6313FE6413F766A8
:1013D20013E96914057013F07300001416021EF667
:1013E2009000387401F0229000387402F0229000CC
:1013F200387403F022900038740A800C900038741C
:10140200148005900038741EF0E4A3F02290003896
:101412007428F0220215AAE508B40D061218FD027E
:1014220015B90215AAE508B40D061219ED0215B98F
:101432000215AAE50824C370030215C924FE70032D
:101442000215C9243260030214E67BFF7A0879B1DF
:10145200900031E0F50C120AB77BFF7A0879C1904F
:101462000033E0F50C120AB7900033E0B4070050E5
:101472006190147AF828287302148F0214A30214BC
:10148200AB0214B30214BB0214C30214CB90003596
:10149200E07BFF70067A0879D180347A0879FC8083
:1014A2002E7BFF7A09792780267BFF7A0979528081
:1014B2001E7BFF7A09797F80167BFF7A0979AC80DF
:1014C2000E7BFF7A0979DA80067BFF7A0A790812A5
:1014D2000AB77BFF7A0A7938900034E0F50C120AD9
:1014E200B70215A50215AAE50824F3601224DD242B
:1014F200F6500924FD70030215C98025021580905B
:101502000033E0901B0893FF900039E0C39F400234
:10151200E4F0900039E0FF900031F0121D24021532
:10152200A50215AAE50824F3601124DD24F650096A
:1015320024FD70030215C980318043900035E0FF1D
:10154200700B900039E0D394064002E4F0EFB4014E
:101552000B900039E0D394014002E4F0900039E0AE
:10156200FF900033F0121F058039803CE50824F318
:10157200601A24DD24F6500624FD604B802A900078
:1015820039E075F00AA4250824D0F022900039E051
:10159200D394074002E4F0900039E0FF900034F069
:1015A200121EE0121EF6801A90003874FFF022E537
:1015B20008B40D03121CB180097BFF7A0A79481224
:0815C2000AB7E4900038F022A2
:101E26002573004C696E6B203F3F004C696E6B203A
:0F1E36004F4B0D0A004C696E6B203F3F0D0A00A9
:1015CA00E47822F67823F67834F6900032F0900028
:1015DA0035F090002AF0900030F0900036741EF03A
:1015EA00121BA320870BD2969000357401F0308726
:1015FA00FDC2961219ED9000347407F0E4900031A0
:10160A00F0900035E070089000337402F08005E431
:10161A00900033F01217F3121DBA121DE0121EFFCA
:10162A00900037E0602B14F0900030E0FF601090DB
:10163A000036E0FEEFD39E5006900030E004F03012
:10164A0094089000327401F080D6E4900032F08061
:10165A00CF7822E66070900032E07008121E0612FF
:10166A001372806290002AE0C394285016121E0654
:10167A0090002AE0FE04F074002EF582E43400F5AE
:10168A0083EFF090002AE0FFC39428500F74FF2FD5
:10169A00F582E434FFF583E0640D702AD296121DB8
:1016AA00BA121EB27B017A00790090002AE0FD127C
:1016BA001C05E490002AF0900030F0C296121DBA80
:1016CA00121EA1121DE0900032E0640170379000F2
:1016DA0036E0FF900030E0D39F402AD296121DBA1E
:1016EA00121EB27B017A00790090002AE0FD121CDA
:1016FA0005E490002AF0900030F0C296121DBA124A
:10170A001EA1121DE0750B01750C00750D297B01D8
:10171A007A007900121B24EF24FC607A0460030229
:10172A0017E7D2A0900029E02400F582E43400F5FE
:10173A0083E4F0750C01750D00750E007BFF7A1EAF
:10174A007926120AB77F32121CECC2A078007C00FC
:10175A007D017BFF7A1E79297E007F071210B4EF84
:10176A00706FD2969000297409F078007C007D0190
:10177A007BFF7A1E7931120F11121DBA121EB27B2B
:10178A00017A007900900029E0FD121C057F3212CF
:10179A001CECC296803B30870302162A3087FDD2A2
:1017AA00969000297409F078007C007D017BFF7A0D
:1017BA001E793B120F11121DBA121EB27B017A005A
:1017CA007900900029E0FD121C057F32121CECC240
:1017DA0096121DBA121EA1121DE002162A121DBA75
:0917EA00121EA1121DE002162AD4
:03040F00021C6666
:101C6600C0E0C0F0C083C082C0D075D000C000C044
:101C760001C002C003C004C005C006C007309805F5
:101C8600121D8EC29830990890003A7401F0C299DC
:101C9600D007D006D005D004D003D002D001D000A2
:0B1CA600D0D0D082D083D0F0D0E0324C
:03041200021E794E
:101E7900C0E0C083C082900037E004F0C2CFD082B6
:051E8900D083D0E0321F
:101BA300C2AF53D9BFE4F5D975B28F75B640F5A965
:101BB30075F1FF75F2FF75F3FF75A41275A54D75E9
:101BC300A6014380E043901275A70F75A41275A573
:101BD3004D75A601F5A775E10175E24075E3401265
:101BE3001ED2121E45121E61D2967F05121CECD224
:101BF300A07F05121CECC2967F05121CECC2A0D27A
:021C0300AF220E
:101E4500759810758D61538EF4438E01858D8B5376
:0C1E5500890F438920D28ED299D2AC2292
:0F0400008F9990003AE060FAE490003AF0FF2202
:101D8E007823E62424F8A699782306E6B41002E414
:101D9E00F67923E7783466700906E6B41007E4F6A0
:0C1DAE0080037822069000307401F022BF
:101E06007822E6601A167834E62424F8E690002B49
:0F1E1600F0783406E6B41002E4F690002BE0FFFB
:011E2500229A
:101A98001D41602752000513A9203A400A201DA1C4
:101AA800204EA5000A27522048400A201ED0009D3B
:101AB8004900244EA52048400A2003D0009D490132
:101AC8003D9D49200F400A1E0368013A9302780998
:101AD800D5001F400A20064501D7DC03B80EBF0019
:101AE8002E400A2D8268013A9302781D7E005C40E0
:101AF8000A509A7140346E00084E792090400A418D
:101B08000E0E0E0B0A08062C2C2C2E2D2E32606081
:0C1B1800604040E0002D2D2D37404E6451
:1017F300D293C281E490002BF0E490002CF0A3F08C
:1018030090002CE0FEA3E0FFE4FCFD7BB87A88F9AE
:10181300F8D3120E09401090002DE004F070E1900F
:10182300002CE004F080D990002BE004F0E0B40F2A
:10183300C87F007E03121D5A7F007E04121D5A7D4D
:10184300807F87121E8E2086FD7F007E03121D5A25
:101853007F007E04121D5A2086FD7F007E03121D29
:101863005A7F007E04121D5AE4FD7F85121E8E7D71
:10187300027F86121E8E7D6D7F89121E8EE4FD7F90
:10188300D1121E8E7D0B7FD0121E8E7D737FF512BB
:101893001E8E900031E0FF121D24E4FD7FB2121E64
:1018A3008E7D027FB3121E8E7D2D7FB6121E8E7D1E
:1018B300D47FB7121E8E7D887FB0121E8E7D637F0C
:1018C300F1121E8E7D107FB4121E8E7D427FB512E3
:1018D3001E8E7D147F8B121E8E7D127F8C121E8EA8
:1018E3007D157F8D121E8E900034E0FF121EE09056
:0918F3000033E0FF1210E87F0051
:0118FC0022C9
:1010E8008F09900035E0600302122DEF75F00EA411
:1010F8002498F582E4341AF583E493FD7F9C121E4C
:101108008EE50975F00EA42499F582E4341AF58366
:10111800E493FD7FA0121E8EE50975F00EA4249AB3
:10112800F582E4341AF583E493FD7FA1121E8EE55F
:101138000975F00EA4249BF582E4341AF583E49330
:10114800FD7FA2121E8EE50975F00EA4249CF5827F
:10115800E4341AF583E493FD7FA3121E8EE5097526
:10116800F00EA4249DF582E4341AF583E493FD7F00
:10117800A4121E8EE50975F00EA4249EF582E434AF
:101188001AF583E493FD7FA5121E8EE50975F00E0E
:10119800A4249FF582E4341AF583E493FD7FEE12CC
:1011A8001E8EE50975F00EA424A0F582E4341AF524
:1011B80083E493FD7FEF121E8EE50975F00EA424DB
:1011C800A1F582E4341AF583E493FD7FF0121E8EB4
:1011D800E50975F00EA424A2F582E4341AF583E437
:1011E80093FD7FF2121E8EE50975F00EA424A3F577
:1011F80082E4341AF583E493FD7F9D121E8EE5097F
:1012080075F00EA424A4F582E4341AF583E493FD62
:101218007F9E121E8EE50975F00EA424A5F582E4C2
:10122800341A021365E50975F00EA424FAF582E470
:10123800341AF583E493FD7F9C121E8EE50975F040
:101248000EA424FBF582E4341AF583E493FD7FA011
:10125800121E8EE50975F00EA424FCF582E4341AFA
:10126800F583E493FD7FA1121E8EE50975F00EA4A7
:1012780024FDF582E4341AF583E493FD7FA2121E5F
:101288008EE50975F00EA424FEF582E4341AF58380
:10129800E493FD7FA3121E8EE50975F00EA424FFCA
:1012A800F582E4341AF583E493FD7FA4121E8EE5DB
:1012B8000975F00EA42400F582E4341BF583E49349
:1012C800FD7FA5121E8EE50975F00EA42401F58296
:1012D800E4341BF583E493FD7FEE121E8EE5097559
:1012E800F00EA42402F582E4341BF583E493FD7F19
:1012F800EF121E8EE50975F00EA42403F582E4347E
:101308001BF583E493FD7FF0121E8EE50975F00E40
:10131800A42404F582E4341BF583E493FD7FF212E0
:101328001E8EE50975F00EA42405F582E4341BF53C
:1013380083E493FD7F9D121E8EE50975F00EA424AB
:1013480006F582E4341BF583E493FD7F9E121E8E1E
:10135800E50975F00EA42407F582E4341BF583E44F
:0A13680093FD7FAA121E8E7F002263
:101DBA007D017F87121E8EE4FD7F85121E8EE4FD53
:101DCA007F86121E8E7F007E03121D5A7F007E04BC
:061DDA00121D5A7F0022D9
:081C05008B088A09890A8D0B86
:101C0D007FBE121E8EE490002BF090002BE0FFC3E0
:101C1D00950B501CAB08AA09A90A8F827583001277
:101C2D000DCAFD7FFF121E8E90002BE004F080DAAE
:101C3D007D047F85121E8EE4FD7F86121E8E7F0031
:101C4D007E03121D5A7F007E04121D5A7D097F8767
:081C5D00121E8E2086FD7F009F
:011C6500225C
:101DE0007D027F85121E8EE4FD7F86121E8E7F008F
:101DF0007E03121D5A7F007E04121D5A7D057F87C7
:061E0000121E8E7F00227D
:061B24008B088A09890A02
:101B2A002086737F007E03121D5AEF90002BF0303F
:101B3A00E00A7D017F87121E8E7F052290002BE02E
:101B4A0030E1537F007E4B121D5AEFAB0BAA0CA952
:101B5A000D120DF7E490002BF0AB0BAA0CA90D1295
:101B6A000DB1FF90002BE0C39F50217F007E7F12B2
:101B7A001D5AAB08050AE50AAA097002050914F9F3
:101B8A00EF120DF790002BE004F080CD7D017F87E6
:081B9A00121E8E7F03227F045E
:011BA2002220
:101CB100E4FD7FF1121E8EE4FD7FB0121E8E7D09C0
:101CC1007F87121E8EE4FD7F85121E8EE4FD7F86C6
:101CD100121E8E7D147F8B121E8E7D127F8C121E22
:0B1CE1008E7D157F8D121E8ED2962284
:101EA1007D027F88121E8EE4FD7F88121E8E7F00C8
:011EB100220E
:101EB2007D017F88121E8EE4FD7F88121E8E7F00B8
:011EC20022FD
:061F05001210E87F00222B
:0C1EE000EF4418FD7FED121E8E7F0022E3
:101D24008F09900033E0901B0F93FD7FF6121E8EF7
:101D3400900033E0901B1693FD7FF7121E8E9000E7
:101D440033E0901B1D93FD7FFA121E8EAD097FF9BF
:061D5400121E8E7F00222A
:0E1ED200758440E4F5B0758502D2B0D293223B
:101CEC00EF6034E490002BF090002BE0C39F502762
:101CFC00E4A3F0A3F090002DE004F0700690002C0B
:101D0C00E004F090002CE0B407EBA3E0B4D0E69034
:071D1C00002BE004F080D170
:011D2300229D
:101E6100538E9F53C8FE75C80475CC1A75CA1A756E
:081E7100CD0A75CB0AD2AD22A7
:0A1EEC008F8630B7FDC2B7AF862223
:101E8E00C2938F8630B7FDC2B78D8630B7FDC2B70D
:031E9E00D29322BA
:041D5A00AD07AC061F
:101D5E00C293EEFF121EEC90002EE4F0A3EFF0E023
:101D6E00F8E4F0E890002EF0AF05121EECA3E02F81
:0F1D7E00F090002EE03400F0D293E0FEA3E0FFDF
:011D8D002233
:03000000021EC31A
:0F1EC30075D900787FE4F6D8FD7581340215CA11
:100DB100BB010689828A83E0225002E722BBFE0240
:090DC100E32289828A83E4932273
:100DCA00BB010CE58229F582E5833AF583E02250DE
:100DDA0006E92582F8E622BBFE06E92582F8E22228
:0D0DEA00E58229F582E5833AF583E4932242
:100DF700BB010689828A83F0225002F722BBFE01DB
:020E0700F322D4
:100E0900EB9FF5F0EA9E42F0E99D42F0EC6480C860
:060E190064809845F02200
:100E1F00D083D082F8E4937012740193700DA3A362
:100E2F0093F8740193F5828883E473740293686076
:060E3F00EFA3A3A380DF76
:100A5500E518240CF8E60518227809300702780C09
:100A6500E475F0011210D8020DB12000EB7F2ED2F3
:100A7500008018EF540F2490D43440D4FF30040B79
:100A8500EF24BFB41A0050032461FFE51960021575
:100A950019051CE51C7002051B30070D7809E47566
:100AA500F0011210D8EF020DF70204007403D2070B
:100AB5008003E4C207F5188B098A0A890BE4F51946
:100AC500F51BF51CE51960077F20120A9080F57566
:100AD5001AFFC201C200C202C203C205C206C20891
:100AE500120A5EFF700D3007057F00120AA1AF1CC8
:100AF500AE1B22B4255FC2D5C204120A5EFF24D004
:100B0500B40A00501A75F00A781930D50508B6FFF1
:100B15000106C6A426F620D5047002D20380D92486
:100B2500CFB41A00EF5004C2E5D204020CA1D201E1
:100B350080C6D20080C0D20280BCD2D580BAD20590
:100B450080B47F20120A902002077401B519004075
:100B5500F1120A55FF120A90020AC9D208D206807C
:100B650095120A55FB120A55FA120A55F94A4B70A5
:100B75000679727A0D7BFF20022EE519602A7E0028
:100B85008E82758300120DCA60060EEE651A70F02E
:100B9500C2D5EBC0E0EAC0E0E9C0E0EE120CE8D057
:100BA500E0F9D0E0FAD0E0FB120DB1FF60AAEBC08E
:100BB500E0EAC0E0E9C0E0120A90D0E02401F9D0F3
:100BC500E03400FAD0E0FBE51A0460DCD51AD980E0
:100BD500877BFF7A0C79E4D202809C7910800279B8
:100BE50008C206C2088008D2D5790A8004790AC2EB
:100BF500D5E51A047002F51AE4FAFDFEFF120A554E
:100C0500FC7B08200113120A55FD7B1030000A12E7
:100C15000A55FE120A55FF7B20EC3382D592D5503A
:100C250013C3E43000069FFFE49EFEE42001039D0C
:100C3500FDE49CFCE4CBF8C201EC700CCFCECDCC2E
:100C4500E824F8F870F38017C3EF33FFEE33FEEDB9
:100C550033FDEC33FCEB33FB994002FB0FD8E9EB9A
:100C6500300105F8D0E0C448B201C0E00AEC4D4EB1
:100C75004F78207B0070C2EAB51A0040BCC0E01274
:100C85000CEAD0F0D0E0200104C4C0E0C4B201C039
:100C9500F0120A79D0F0D5F0EB020AC9120E1F0B3B
:100CA50066530BE0580B374C0B33420BE44F0BEC00
:0F0CB500440BEC490B4C430BF2550BD6460BD6B8
:100CC400450BD6470D92500B3B2D0B3F2E0B622B41
:100CD4000B43230B60200D7B2A0AFB4800000B5AB0
:100CE4003F3F3F00790AA2D5200314300509B9100B
:100CF400020404B9080104A2D5200602500104200C
:100D040002689202B519005034C0E07F2030031904
:100D14007F30A20272067205500F120D41C202C248
:100D240006C205C2087F30800F300503E9C0E01217
:100D34000A90300503D0E0F9D0E0B519CC3005179E
:100D44007F30B9100C120A907F583004077F7880E6
:100D540003B90803120A903002057F2D020A907F1E
:100D6400202008F87F2B2006F322920280CF286EE1
:100D7400756C6C2900D201120A553001F8C2017851
:100D84001930D50108F6020AFB2D50434958120ABE
:100D9400552403B405004001E4900D8D93120A819B
:0D0DA400743A120A81D203751904020BE0A3
:100E4500E709F60870FA8046E709F20870FA803E6D
:100E550088828C83E709F0A370FA807EE309F6089F
:100E650070FA8076E309F20870FA806E88828C83C6
:100E7500E309F0A370FA806289828A83E0A3F60809
:100E850070FA805689828A83E0A3F20870FA804A54
:100E950080D280FA80C680D4806580F2803180104F
:100EA50080A680EA809A80A880DA80E280CA8031B4
:100EB50089828A83ECFAE493A3C8C582C8CCC5832A
:100EC500CCF0A3C8C582C8CCC583CC70E9800D8998
:100ED500828A83E493A3F60870F9ECFAA9F0EDFB96
:100EE5002289828A83ECFAE0A3C8C582C8CCC5836F
:100EF500CCF0A3C8C582C8CCC583CC70EA80DD8997
:100F0500828A83E493A3F20870F980CE88F0ED24F9
:100F150002B4040050C4F582EB2402B4040050BAB4
:090F25002323458223900E9573ED
:100F2E00E3F5F009E208B5F06BDFF58067E3F5F065
:100F3E0009E608B5F05EDFF5805A87F009E608B5D8
:100F4E00F052DFF6804E87F009E208B5F046DFF684
:100F5E00804288828C8387F009E0A3B5F036DFF6F5
:100F6E00803288828C8387F009E493A3B5F025DF65
:100F7E00F5802188828C83E3F5F009E0A3B5F014A7
:100F8E00DFF5801088828C83E3F5F009E493A3B536
:100F9E00F002DFF402105D808780E9809080D480BB
:100FAE003E8015806E807E809D80B7808D80A38070
:100FBE00518074803C02106989828A83ECFAE49332
:100FCE00F5F0A3C8C582C8CCC583CCE493A3C8C52D
:100FDE0082C8CCC583CCB5F076DFE3DEE1807089C4
:100FEE00828A83E493F5F0A3E208B5F062DFF48021
:100FFE005E89828A83E0F5F0A3E608B5F051DFF54D
:10100E00804D89828A83E0F5F0A3E208B5F040DFD7
:10101E00F5803C89828A83E493F5F0A3E608B5F067
:10102E002EDFF4802A8002805789828A83ECFAE4CC
:10103E0093F5F0A3C8C582C8CCC583CCE0A3C8C5C0
:10104E0082C8CCC583CCB5F006DFE4DEE280007F3B
:10105E00FFB5F0020F2240027F012289828A83ECC3
:10106E00FAE0F5F0A3C8C582C8CCC583CCE0A3C80E
:10107E00C582C8CCC583CCB5F0D5DFE5DEE380CF25
:10108E0089828A83ECFAE0F5F0A3C8C582C8CCC584
:10109E0083CCE493A3C8C582C8CCC583CCB5F0AFCE
:1010AE00DFE4DEE280A988F0EF60010E4E60ABED6A
:1010BE002402B404005098F582EB2402B4040050CC
:0A10CE008E2323458223900FA573A3
:1010D800FAE6FB0808E6F925F0F618E6CA3AF62219
:00000001FF
