:030000000202B346
:03000300020403F1
:03000B00020406E6
:03001300020409DB
:03001B0002040CD0
:0300230002040FC5
:03002B00020412BA
:03003300020415AF
:03003B00020418A4
:0300430002041B99
:03004B0002041E8E
:0300530002042183
:03005B0002042478
:030063000204276D
:03006B0002042A62
:0300730002042D57
:03007B000204304C
:0300830002043341
:03008B0002043636
:030093000204392B
:03009B0002043C20
:0F02B30075D900787FE4F6D8FD7581C90202FD88
:10FA23004F4B003E005352573030352C30352E3378
:10FA3300722C30312E32722C424C4400454100432B
:0EFA43004900534100534B004343004D560011
:08FB3000010C00C100010A00F4
:10021F00E4F521752201E5EF20E112E5EF30E60567
:10022F007521018008E5EF30E203E4F52212FA7838
:10023F00BF0A13E521700FE522B40103E4F5B77A85
:10024F0004790012FAC075B28FE4F5A975E1017552
:10025F00A41043D54043A54043D60143A60143D440
:07026F008075E34012FADF85
:0E0276001203958F231201618F24E52460246A
:1002840012F9C08E258F26787A760D08760A0876BC
:100294004508A62508A626E408F6FB7A00797A1212
:0202A40003D67F
:0B02A60080CE7BFF7AFA79231203D68A
:0202B10080C308
:100395007BFF7AFA79261203D62098277F19308FAA
:1003A500FD209814C28FE528152870021527E52829
:1003B50045277002B2A0DFE62098083001DB12F86D
:1003C500B980D6C29885992930010312F8B9AF29A9
:0103D5002205
:020161008F27E6
:10016300E527B43A0812009E8F2802021CE5276493
:100173000D603FE527B40A028038E52724B6B407AB
:1001830000400302021990019775F003A4C583256B
:10019300F0C583730201AC0201BA0201CA0201D89D
:1001A3000201E60201F60202097BFF7AFA792812BC
:1001B30003D6E4F52880627BFF7AFA793F1203D6EF
:1001C30012F8F28F2880527BFF7AFA79421203D613
:1001D30012FA78802A7BFF7AFA79451203D675EFF3
:1001E3001280367BFF7AFA79481203D612FB0F8FFF
:1001F3002880267BFF7AFA794B1203D612F9288FCF
:100203002812F87D80137BFF7AFA794E1203D612F7
:0B021300F83F8F288003752809AF28F2
:01021E0022BD
:10FADF00759810758D96538EF4438E08858D8B53C4
:0AFAEF00890F438920D28ED299229C
:10009E0085992AC298E52A643A6006752B010201F9
:1000AE0055C2987F0212F8078F2C852C2D852C13A4
:1000BE00E52CD394204006752B050201557F0212C4
:1000CE00F8078F1412F8008F1512F8008F16EF250F
:1000DE002DF52DEF600964016005752B028068BF58
:1000EE000105752B048060E4F529E529C3952C5094
:1000FE00157F0212F807745A2529F8A607EF252D49
:10010E00F52D052980E47F0212F807EF252DF52D38
:10011E00700D1203428F2BB2A0E52B60168028754E
:10012E002B038023E52A640D6009E52A640A600327
:10013E000200A17F0112F8078F2A80E8E52A640DDC
:10014E006005E52AB40A097F0112F8078F2A80ECB0
:02015E00AF2BC5
:01016000227C
:10FB0F007F0212F8078F1A7F0212F8078F1B7F00F0
:01FB1F0022C3
:10F8F2007529F7752AFCD3E52A9400E5299404407A
:10F9020022851A1C851B1E7B03E4FDAF2AAE291239
:10F91200FA9CE4F51CF51E252AF52A74FC3529F516
:05F922002980D37F00E5
:01F9270022BD
:10F83F00E4F5297F0212F807740E2529F8A60705AB
:10F84F0029E529C3940440EB7F0412F95C7FF7127A
:10F85F00F95C7FFC12F95CAF1112F95CAF1012F971
:0DF86F005CAF0F12F95CAF0E12F95C7F0068
:01F87C002269
:10FA780085A72975A70F7D3D7F0112FAF912FB2092
:10FA8800E5114510450F450E70047F0A80027F0B73
:03FA98008529A716
:01FA9B002248
:10F9280085A72975A70F7D3C7F0112FAF97F007E14
:10F93800F4E4FDFCEF2DF582EE3CF583E493F593BA
:10F948000DBD00010CBC03ECBDFCE912FB208529B0
:03F95800A77F0086
:01F95B002289
:10FAF900E4F5924392088F968D97439680F5927517
:06FB090095FF53967F22D8
:10FB2000E4F59285911185911085910F85910E22B2
:10F87D00752C7AE4F529740E2529F8E6FF12F9C0E6
:10F88D008E2A8F2BAF2C052CA807A62AAF2C052C62
:10F89D00A807A62B0529E529C3940440D9A82CE473
:0BF8AD00F6FB7A00797A1203D67F0088
:01F8B800222D
:10F8B900E50A700F12F9F28F0A12F9F28F0812F99C
:10F8C900F28F0912F9F2AD07851A1C851B1E7B01FF
:10F8D900AF09AE0812FA9CE4F51CF51E0509E50905
:08F8E90070020508150A7F00FA
:01F8F10022F4
:10034200C3E514940450037F06227E00E5152513AD
:10035200FFEE3514FED3EF9400EE94F840037F06CF
:1003620022AF1312F95CAF1412F95CAF1512F95CEB
:10037200E4F52EE52EC395135018745A252EF8E68F
:10038200FF12F95C309807C29885990BD200052EAE
:0203920080E108
:010394002246
:10F95C00A2AF9202C2AFE50DB42809050CA2029227
:10F96C00AF7F07227432251DF8A607050DE51DB4DF
:10F97C002705E4F51D8002051DD201A20292AF7F7E
:01F98C00007A
:01F98D002257
:10F9F200A2AF9202E50D7009050CA20292AF7F0838
:10FA02002274322512F8E6FF150DE512B42705E43B
:10FA1200F51280020512E50D7004C2018002D201C6
:01FA220022C1
:10F98E008E308F31E530D39439400474C9800274BF
:10F99E00D02530F530E531D39439400474C9800256
:10F9AE0074D02531F53153310FE530C454F0453163
:01F9BE00FF49
:01F9BF002225
:10F9C000EFC4540FF52DEF540FF52EE52DD3940908
:10F9D0004004743780027430252DF52DE52ED39424
:10F9E000094004743780027430252EF52EAE2DAFF9
:01F9F0002EE8
:01F9F10022F3
:07F80000EF252DF52D7F021D
:10F80700300007850B2EC20080083098FDC298850E
:10F81700992EBF0103AF2E223098FDC29885992FEC
:10F8270030010312F8B9309807C29885990BD200B6
:07F83700AF2FAE2E12F98E77
:01F83E0022A7
:10FA9C00A2AF9202C2AF75FF8075EF028F828E8388
:10FAAC00851CB7851EB7EB428FEDF0EBF4528FA29D
:03FABC000292AF04
:01FABF002224
:1002C20002021FE493A3F8E493A34003F68001F231
:1002D20008DFF48029E493A3F85407240CC8C3333D
:1002E200C4540F4420C8834004F456800146F6DF0C
:1002F200E4800B010204081020408090FB30E47E71
:10030200019360BCA3FF543F30E509541FFEE49300
:10031200A360010ECF54C025E060A840B8E493A3C7
:10032200FAE493A3F8E493A3C8C582C8CAC583CAF2
:10033200F0A3C8C582C8CAC583CADFE9DEE780BEAA
:01FB380000CC
:06FAC0008A838982E473D1
:1003D60012FAC6601CFF09E970010AC0E0EAC0E033
:1003E600EBC0E012FA51D0E0FBD0E0FAD0E0F980A1
:0A03F600DF7F0A12FA51E4FEFF2235
:10FAC600BB010689828A83E0225002E722BBFE023E
:09FAD600E32289828A83E4932271
:10FA5100EFB40A07740D12FA5C740A309811A89970
:10FA6100B8130CC2983098FDA899C298B811F63015
:07FA710099FDC299F59922ED
:04F7FC00233CCA8F51
:100415005352573030352C0030312E3072002C00BD
:1004250030312E3462002C45440D0A00455A4C6982
:100435006E6B2064656D6F2000383638004D487A44
:100445000D0A0053696C69636F6E204C61626F72AF
:1004550061746F726965732C20323031300D0A007A
:100465007777772E73696C6162732E636F6D0D0AF2
:100475000053693434323120636F6D706174696281
:100485006C65206D6F64650D0A000A0D4F4B0A0DF2
:100495003E0A0D000A0D463D6E203A205365742034
:1004A500746865207266206368616E6E656C000A0B
:1004B5000D2009322E34206B6270733B2063686116
:1004C5006E6E656C206E756D6265723A302D3133D6
:1004D500000A0D2009342E38206B6270733B2063AF
:1004E50068616E6E656C206E756D6265723A302D51
:1004F5003133000A0D2009392E36206B6270733BAB
:10050500206368616E6E656C206E756D6265723A0A
:10051500302D3133000A0D200931392E32206B621E
:1005250070733B206368616E6E656C206E756D62DD
:1005350065723A302D3130000A0D200933382E34DA
:10054500206B6270733B206368616E6E656C206E14
:10055500756D6265723A302D39000A0D20093537FF
:100565002E36206B6270733B206368616E6E656C1E
:10057500206E756D6265723A302D37000A0D2009BF
:100585003131352E32206B6270733B206368616EAA
:100595006E656C206E756D6265723A302D35000A98
:1005A5000D443D6E203A20536574207468652072B1
:1005B50066206461746172617465202830202D2085
:1005C5003629000A0D0930202D2044523A20322EBA
:1005D500346B6270732C204445563A202B2D3336EC
:1005E5006B487A2C20424242573A2037352E326BDF
:1005F500487A000A0D0931202D2044523A20342E24
:10060500386B6270732C204445563A202B2D3435B7
:100615006B487A2C20424242573A2039352E336BAB
:10062500487A000A0D0932202D2044523A20392EED
:10063500366B6270732C204445563A202B2D343589
:100645006B487A2C20424242573A2039392E366B74
:10065500487A000A0D0933202D2044523A203139B9
:100665002E326B6270732C204445563A202B2D395F
:100675002E366B487A2C20424242573A2032382E89
:10068500386B487A000A0D0934202D2044523A204F
:1006950033382E346B6270732C204445563A202B28
:1006A5002D31392E326B487A2C20424242573A205E
:1006B50035372E366B487A000A0D0935202D204432
:1006C500523A2035372E366B6270732C20444556CE
:1006D5003A202B2D32382E386B487A2C2042424254
:1006E500573A2038362E346B487A000A0D093620E1
:1006F5002D2044523A203131352E326B6270732CE5
:10070500204445563A202B2D35372E366B487A2C0A
:1007150020424242573A203137322E386B487A0010
:100725000A0D503D6E203A2053657420746865208B
:100735007266206F757470757420706F77657200BE
:100745000A0D2020202020205369343433313A20EB
:10075500302D3720282D3864426D2C2D3564426D9F
:100765002C2D3264426D2C2B3164426D2C2B34645C
:10077500426D2C2B3764426D2C2B313064426D2C2D
:100785002B313364426D29000A0D202020202020C2
:100795005369343433323A20302D3720282B3164D5
:1007A500426D2C2B3264426D2C2B3564426D2C2B03
:1007B5003864426D2C2B313164426D2C2B313464FD
:1007C500426D2C2B313764426D2C2B323064426DD7
:1007D50029000A0D533F20203A205072696E74207B
:1007E5007468652063757272656E742073657474C0
:1007F500696E6773000A0D492020203A20507269FE
:100805006E74206669726D776172652076657273A4
:10081500696F6E20696E666F726D6174696F6E00C7
:1008250028302D313329000A0D524620706172613E
:100835006D65746572733A000A0D0944523A2039A0
:100845002E366B6270732C204445563A202B2D3979
:10085500306B487A2C20424242573A3138342E3890
:100865006B487A000A0D503D6E203A20536574207E
:10087500746865207266206F757470757420706F6A
:10088500776572202830202D20333B202B313164B1
:10089500426D2C202B313464426D2C202B31376472
:1008A500426D2C202B323064426D29000D0A4368BD
:1008B500616E6E656C203A20256264000D0A446104
:1008C5007461726174653A20256264002844523A65
:1008D50020322E346B6270732C204445563A202BFF
:1008E5002D33366B487A2C20424242573A20373511
:1008F5002E326B487A29002844523A20392E366B1D
:100905006270732C204445563A202B2D39306B48A4
:100915007A2C20424242573A3138342E386B487A85
:1009250029002844523A20342E386B6270732C20EB
:100935004445563A202B2D34356B487A2C204242BB
:1009450042573A2039352E336B487A2900284452CC
:100955003A20392E366B6270732C204445563A2066
:100965002B2D34356B487A2C20424242573A203998
:10097500392E362E386B487A29002844523A2031D0
:10098500392E326B6270732C204445563A202B2D3C
:10099500392E366B487A2C20424242573A2032385B
:1009A5002E386B487A29002844523A2033382E34A1
:1009B5006B6270732C204445563A202B2D31392E0D
:1009C500326B487A2C20424242573A2035372E3630
:1009D5006B487A29002844523A2035372E366B6207
:1009E50070732C204445563A202B2D32382E386B07
:1009F500487A2C20424242573A2038362E346B48EA
:100A05007A29002844523A203131352E326B6270F2
:100A1500732C204445563A202B2D35372E366B48FE
:100A25007A2C20424242573A203137322E386B48D1
:100A35007A29000D0A524620706F7765723A202593
:100A45006264000D0A4552524F520D0A3E0D0A00CE
:061F1600E4900038F02207
:101A0400900035E07BFF7A0479157041120AB77BA8
:101A1400FF7A04791D120AB77BFF7A047923120A2C
:101A2400B77BFF7A047925120AB77BFF7A04792BF6
:101A3400120AB77BFF7A047931120AB77BFF7A0462
:101A4400793E120AB77BFF7A0479428048120AB7BA
:101A54007BFF7A04791D120AB77BFF7A047923127B
:101A64000AB77BFF7A047925120AB77BFF7A0479D7
:101A74002B120AB77BFF7A047931120AB77BFF7AFB
:101A840004793E120AB77BFF7A047942120AB77BC3
:101A9400FF7A047976120AB77BFF7A047948120A2E
:0B1AA400B77BFF7A047965120AB722B5
:091F0D007BFF7A04798F020AB708
:10191400900035E07BFF7A04799960030219C712BD
:101924000AB77BFF7A0479B4120AB77BFF7A047989
:10193400D6120AB77BFF7A0479F8120AB77BFF7ACA
:1019440005791A120AB77BFF7A05793D120AB77B2B
:10195400FF7A05795F120AB77BFF7A057981120A4B
:10196400B77BFF7A0579A4120AB77BFF7A0579C899
:10197400120AB77BFF7A0579F8120AB77BFF7A0659
:101984007928120AB77BFF7A067958120AB77BFFC7
:101994007A06798A120AB77BFF7A0679BD120AB7EA
:1019A4007BFF7A0679F0120AB77BFF7A0779251252
:1019B4000AB77BFF7A077945120AB77BFF7A077962
:1019C4008D8024120AB77BFF7A087925120AB77B27
:1019D400FF7A08792C120AB77BFF7A08793D120A3C
:1019E400B77BFF7A087969120AB77BFF7A0779D740
:1019F400120AB77BFF7A0779FA120AB7121F0D226F
:101372008F08E508640A70030215E0E5086420702E
:10138200030215E0900038E0120E1F13AF0014297B
:101392000114370214450314F90A153614157E1E7A
:1013A20015C12815CB3215D2FF000015E0E5081251
:1013B2000E1F13E80D13EB3F141F421418431407BA
:1013C2004414004613F249140E5013F953141F62C9
:1013D20014186314076414006613F269140E701370
:1013E200F97300001426021F0D9000387401F022D8
:1013F2009000387402F0229000387403F0229000BA
:1014020038740A800C900038741480059000387487
:101412001EF0E4A3F0229000387428F022900038E5
:101422007432F0220215BAE508B40D06121914023C
:1014320015C90215BAE508B40D06121A040215C937
:101442000215BAE50824C370030215E024FE7003F6
:101452000215E0243260030214F67BFF7A0879B1A8
:10146200900031E0F50C120AB77BFF7A0879C1903F
:101472000033E0F50C120AB7900033E0B4070050D5
:101482006190148AF828287302149F0214B302147C
:10149200BB0214C30214CB0214D30214DB90003536
:1014A200E07BFF70067A0879D180347A0879FC8073
:1014B2002E7BFF7A09792780267BFF7A0979528071
:1014C2001E7BFF7A09797F80167BFF7A0979AC80CF
:1014D2000E7BFF7A0979DA80067BFF7A0A79081295
:1014E2000AB77BFF7A0A7938900034E0F50C120AC9
:1014F200B70215B50215BAE50824F3601224DD24FB
:10150200F6500924FD70030215E080250215909023
:101512000033E0901B1F93FF900039E0C39F40020D
:10152200E4F0900039E0FF900031F0121D3B02150B
:10153200B50215BAE50824F3601124DD24F650093A
:1015420024FD70030215E080318043900035E0FFF6
:10155200700B900039E0D394064002E4F0EFB4013E
:101562000B900039E0D394014002E4F0900039E09E
:10157200FF900033F0121F1C8039803CE50824F3F1
:10158200601A24DD24F6500624FD6052802A900061
:1015920039E075F00AA4250824D0F022900039E041
:1015A200D394074002E4F0900039E0FF900034F059
:1015B200120403121F0D802190003874FFF022E5FF
:1015C20008B40D03121CC8801090FFFDE493800A3A
:0F15D2007BFF7A0A7948120AB7E4900038F022BA
:101E3D002573004C696E6B203F3F004C696E6B2023
:0F1E4D004F4B0D0A004C696E6B203F3F0D0A0092
:1015E100E47822F67823F67834F6900032F0900011
:1015F10035F090002AF0900030F0900036741EF023
:10160100121BBA20870BD2969000357401F03087F7
:10161100FDC296121A049000347407F0E490003170
:10162100F0900035E070089000337402F08005E41A
:10163100900033F012180A121DD1121DF7121F1655
:10164100900037E0602B14F0900030E0FF601090C4
:101651000036E0FEEFD39E5006900030E004F030FB
:1016610094089000327401F080D6E4900032F0804A
:10167100CF7822E66070900032E07008121E1D12D1
:101681001372806290002AE0C394285016121E1D26
:1016910090002AE0FE04F074002EF582E43400F597
:1016A10083EFF090002AE0FFC39428500F74FF2FBE
:1016B100F582E434FFF583E0640D702AD296121DA1
:1016C100D1121EC97B017A00790090002AE0FD1237
:1016D1001C1CE490002AF0900030F0C296121DD13B
:1016E100121EB8121DF7900032E0640170379000AD
:1016F10036E0FF900030E0D39F402AD296121DD1F0
:10170100121EC97B017A00790090002AE0FD121CAB
:101711001CE490002AF0900030F0C296121DD11204
:101721001EB8121DF7750B01750C00750D297B0193
:101731007A007900121B3BEF24FC607A04600302FB
:1017410017FED2A0900029E02400F582E43400F5D0
:1017510083E4F0750C01750D00750E007BFF7A1E98
:10176100793D120AB77F32121D03C2A078007C00B6
:101771007D017BFF7A1E79407E007F071210B4EF56
:10178100706FD2969000297409F078007C007D0179
:101791007BFF7A1E7948120F11121DD1121EC97BCF
:1017A100017A007900900029E0FD121C1C7F3212A1
:1017B1001D03C296803B3087030216413087FDD25C
:1017C100969000297409F078007C007D017BFF7AF6
:1017D1001E7952120F11121DD1121EC97B017A00FE
:1017E1007900900029E0FD121C1C7F32121D03C2FA
:1017F10096121DD1121EB8121DF7021641121DD1EB
:09180100121EB8121DF702164177
:03040F00021C7D4F
:101C7D00C0E0C0F0C083C082C0D075D000C000C02D
:101C8D0001C002C003C004C005C006C007309805DE
:101C9D00121DA5C29830990890003A7401F0C299AE
:101CAD00D007D006D005D004D003D002D001D0008B
:0B1CBD00D0D0D082D083D0F0D0E03235
:03041200021E9037
:101E9000C0E0C083C082900037E004F0C2CFD0829F
:051EA000D083D0E03208
:101BBA00C2AF53D9BFE4F5D975B28F75B640F5A94E
:101BCA0075F1FF75F2FF75F3FF75A41275A54D75D2
:101BDA00A6014380E043901275A70F75A41275A55C
:101BEA004D75A601F5A775E10175E24075E340124E
:101BFA001EE9121E5C121E78D2967F05121D03D2B0
:101C0A00A07F05121D03C2967F05121D03C2A0D232
:021C1A00AF22F7
:0E1EE900758440E4F5B0758502D2B0D2932224
:101D0300EF6034E490002BF090002BE0C39F50274A
:101D1300E4A3F0A3F090002DE004F0700690002CF3
:101D2300E004F090002CE0B407EBA3E0B4D0E6901D
:071D3300002BE004F080D159
:011D3A002286
:101E7800538E9F53C8FE75C80475CC1A75CA1A7557
:081E8800CD0A75CB0AD2AD2290
:0A1F03008F8630B7FDC2B7AF86220B
:101EA500C2938F8630B7FDC2B78D8630B7FDC2B7F6
:031EB500D29322A3
:041D7100AD07AC0608
:101D7500C293EEFF121F0390002EE4F0A3EFF0E0F4
:101D8500F8E4F0E890002EF0AF05121F03A3E02F52
:0F1D9500F090002EE03400F0D293E0FEA3E0FFC8
:011DA400221C
:101AAF001D41602752000513A9203A400A201DA1AD
:101ABF00204EA5000A27522048400A201ED0009D24
:101ACF004900244EA52048400A2003D0009D49011B
:101ADF003D9D49200F400A1E0368013A9302780981
:101AEF00D5001F400A20064501D7DC03B80EBF0002
:101AFF002E400A2D8268013A9302781D7E005C40C9
:101B0F000A509A7140346E00084E792090400A4175
:101B1F000E0E0E0B0A08062C2C2C2E2D2E3260606A
:0C1B2F00604040E0002D2D2D37404E643A
:10180A00D293C281E490002BF0E490002CF0A3F074
:10181A0090002CE0FEA3E0FFE4FCFD7BB87A88F997
:10182A00F8D3120E09401090002DE004F070E190F8
:10183A00002CE004F080D990002BE004F0E0B40F13
:10184A00C87F007E03121D717F007E04121D717D08
:10185A00807F87121EA52086FD7F007E03121D71E0
:10186A007F007E04121D712086FD7F007E03121DFB
:10187A00717F007E04121D71E4FD7F85121EA57D15
:10188A00027F86121EA57D6D7F89121EA5E4FD7F4B
:10189A00D1121EA57D0B7FD0121EA57D737FF51276
:1018AA001EA5900031E0FF121D3BE4FD7FB2121E1F
:1018BA00A57D027FB3121EA57D2D7FB6121EA57DC2
:1018CA00D47FB7121EA57D887FB0121EA57D637FC7
:1018DA00F1121EA57D107FB4121EA57D427FB5129E
:1018EA001EA57D147F8B121EA57D127F8C121EA54C
:1018FA007D157F8D121EA5900034E0FF120403901F
:09190A000033E0FF1210E87F0039
:0119130022B1
:1010E8008F09900035E0600302122DEF75F00EA411
:1010F80024AFF582E4341AF583E493FD7F9C121E35
:10110800A5E50975F00EA424B0F582E4341AF58338
:10111800E493FD7FA0121EA5E50975F00EA424B185
:10112800F582E4341AF583E493FD7FA1121EA5E548
:101138000975F00EA424B2F582E4341AF583E49319
:10114800FD7FA2121EA5E50975F00EA424B3F58251
:10115800E4341AF583E493FD7FA3121EA5E509750F
:10116800F00EA424B4F582E4341AF583E493FD7FE9
:10117800A4121EA5E50975F00EA424B5F582E43481
:101188001AF583E493FD7FA5121EA5E50975F00EF7
:10119800A424B6F582E4341AF583E493FD7FEE12B5
:1011A8001EA5E50975F00EA424B7F582E4341AF5F6
:1011B80083E493FD7FEF121EA5E50975F00EA424C4
:1011C800B8F582E4341AF583E493FD7FF0121EA586
:1011D800E50975F00EA424B9F582E4341AF583E420
:1011E80093FD7FF2121EA5E50975F00EA424BAF549
:1011F80082E4341AF583E493FD7F9D121EA5E50968
:1012080075F00EA424BBF582E4341AF583E493FD4B
:101218007F9E121EA5E50975F00EA424BCF582E494
:10122800341A021365E50975F00EA42411F582E459
:10123800341BF583E493FD7F9C121EA5E50975F028
:101248000EA42412F582E4341BF583E493FD7FA0F9
:10125800121EA5E50975F00EA42413F582E4341BCB
:10126800F583E493FD7FA1121EA5E50975F00EA490
:101278002414F582E4341BF583E493FD7FA2121E47
:10128800A5E50975F00EA42415F582E4341BF58351
:10129800E493FD7FA3121EA5E50975F00EA424169C
:1012A800F582E4341BF583E493FD7FA4121EA5E5C3
:1012B8000975F00EA42417F582E4341BF583E49332
:1012C800FD7FA5121EA5E50975F00EA42418F58268
:1012D800E4341BF583E493FD7FEE121EA5E5097542
:1012E800F00EA42419F582E4341BF583E493FD7F02
:1012F800EF121EA5E50975F00EA4241AF582E43450
:101308001BF583E493FD7FF0121EA5E50975F00E29
:10131800A4241BF582E4341BF583E493FD7FF212C9
:101328001EA5E50975F00EA4241CF582E4341BF50E
:1013380083E493FD7F9D121EA5E50975F00EA42494
:101348001DF582E4341BF583E493FD7F9E121EA5F0
:10135800E50975F00EA4241EF582E4341BF583E438
:0A13680093FD7FAA121EA57F00224C
:101DD1007D017F87121EA5E4FD7F85121EA5E4FD0E
:101DE1007F86121EA57F007E03121D717F007E0477
:061DF100121D717F0022AB
:081C1C008B088A09890A8D0B6F
:101C24007FBE121EA5E490002BF090002BE0FFC3B2
:101C3400950B501CAB08AA09A90A8F827583001260
:101C44000DCAFD7FFF121EA590002BE004F080DA80
:101C54007D047F85121EA5E4FD7F86121EA57F00EC
:101C64007E03121D717F007E04121D717D097F8722
:081C7400121EA52086FD7F0071
:011C7C002245
:101DF7007D027F85121EA5E4FD7F86121EA57F004A
:101E07007E03121D717F007E04121D717D057F8781
:061E1700121EA57F00224F
:061B3B008B088A09890AEB
:101B41002086737F007E03121D71EF90002BF03011
:101B5100E00A7D017F87121EA57F052290002BE000
:101B610030E1537F007E4B121D71EFAB0BAA0CA924
:101B71000D120DF7E490002BF0AB0BAA0CA90D127E
:101B81000DB1FF90002BE0C39F50217F007E7F129B
:101B91001D71AB08050AE50AAA097002050914F9C5
:101BA100EF120DF790002BE004F080CD7D017F87CF
:081BB100121EA57F03227F0430
:011BB9002209
:101CC800E4FD7FF1121EA5E4FD7FB0121EA57D097B
:101CD8007F87121EA5E4FD7F85121EA5E4FD7F8681
:101CE800121EA57D147F8B121EA57D127F8C121EDD
:0B1CF800A57D157F8D121EA5D296223F
:101EB8007D027F88121EA5E4FD7F88121EA57F0083
:011EC80022F7
:101EC9007D017F88121EA5E4FD7F88121EA57F0073
:011ED90022E6
:061F1C001210E87F002214
:0C040300EF4418FD7FED121EA57F0022C3
:101D3B008F09900033E0901B2693FD7FF6121EA5B2
:101D4B00900033E0901B2D93FD7FF7121EA59000A2
:101D5B0033E0901B3493FD7FFA121EA5AD097FF97A
:061D6B00121EA57F0022FC
:03040000021EF7E2
:0C1EF700787FE4F6D8FD7581340215E117
:101E5C00759810758D61538EF4438E01858D8B535F
:0C1E6C00890F438920D28ED299D2AC227B
:0F1EDA008F9990003AE060FAE490003AF0FF220E
:101DA5007823E62424F8A699782306E6B41002E4FD
:101DB500F67923E7783466700906E6B41007E4F689
:0C1DC50080037822069000307401F022A8
:101E1D007822E6601A167834E62424F8E690002B32
:0F1E2D00F0783406E6B41002E4F690002BE0FFE4
:011E3C002283
:100DB100BB010689828A83E0225002E722BBFE0240
:090DC100E32289828A83E4932273
:100DCA00BB010CE58229F582E5833AF583E02250DE
:100DDA0006E92582F8E622BBFE06E92582F8E22228
:0D0DEA00E58229F582E5833AF583E4932242
:100DF700BB010689828A83F0225002F722BBFE01DB
:020E0700F322D4
:100E0900EB9FF5F0EA9E42F0E99D42F0EC6480C860
:060E190064809845F02200
:100E1F00D083D082F8E4937012740193700DA3A362
:100E2F0093F8740193F5828883E473740293686076
:060E3F00EFA3A3A380DF76
:100A5500E518240CF8E60518227809300702780C09
:100A6500E475F0011210D8020DB12000EB7F2ED2F3
:100A7500008018EF540F2490D43440D4FF30040B79
:100A8500EF24BFB41A0050032461FFE51960021575
:100A950019051CE51C7002051B30070D7809E47566
:100AA500F0011210D8EF020DF7021EDA7403D20717
:100AB5008003E4C207F5188B098A0A890BE4F51946
:100AC500F51BF51CE51960077F20120A9080F57566
:100AD5001AFFC201C200C202C203C205C206C20891
:100AE500120A5EFF700D3007057F00120AA1AF1CC8
:100AF500AE1B22B4255FC2D5C204120A5EFF24D004
:100B0500B40A00501A75F00A781930D50508B6FFF1
:100B15000106C6A426F620D5047002D20380D92486
:100B2500CFB41A00EF5004C2E5D204020CA1D201E1
:100B350080C6D20080C0D20280BCD2D580BAD20590
:100B450080B47F20120A902002077401B519004075
:100B5500F1120A55FF120A90020AC9D208D206807C
:100B650095120A55FB120A55FA120A55F94A4B70A5
:100B75000679727A0D7BFF20022EE519602A7E0028
:100B85008E82758300120DCA60060EEE651A70F02E
:100B9500C2D5EBC0E0EAC0E0E9C0E0EE120CE8D057
:100BA500E0F9D0E0FAD0E0FB120DB1FF60AAEBC08E
:100BB500E0EAC0E0E9C0E0120A90D0E02401F9D0F3
:100BC500E03400FAD0E0FBE51A0460DCD51AD980E0
:100BD500877BFF7A0C79E4D202809C7910800279B8
:100BE50008C206C2088008D2D5790A8004790AC2EB
:100BF500D5E51A047002F51AE4FAFDFEFF120A554E
:100C0500FC7B08200113120A55FD7B1030000A12E7
:100C15000A55FE120A55FF7B20EC3382D592D5503A
:100C250013C3E43000069FFFE49EFEE42001039D0C
:100C3500FDE49CFCE4CBF8C201EC700CCFCECDCC2E
:100C4500E824F8F870F38017C3EF33FFEE33FEEDB9
:100C550033FDEC33FCEB33FB994002FB0FD8E9EB9A
:100C6500300105F8D0E0C448B201C0E00AEC4D4EB1
:100C75004F78207B0070C2EAB51A0040BCC0E01274
:100C85000CEAD0F0D0E0200104C4C0E0C4B201C039
:100C9500F0120A79D0F0D5F0EB020AC9120E1F0B3B
:100CA50066530BE0580B374C0B33420BE44F0BEC00
:0F0CB500440BEC490B4C430BF2550BD6460BD6B8
:100CC400450BD6470D92500B3B2D0B3F2E0B622B41
:100CD4000B43230B60200D7B2A0AFB4800000B5AB0
:100CE4003F3F3F00790AA2D5200314300509B9100B
:100CF400020404B9080104A2D5200602500104200C
:100D040002689202B519005034C0E07F2030031904
:100D14007F30A20272067205500F120D41C202C248
:100D240006C205C2087F30800F300503E9C0E01217
:100D34000A90300503D0E0F9D0E0B519CC3005179E
:100D44007F30B9100C120A907F583004077F7880E6
:100D540003B90803120A903002057F2D020A907F1E
:100D6400202008F87F2B2006F322920280CF286EE1
:100D7400756C6C2900D201120A553001F8C2017851
:100D84001930D50108F6020AFB2D50434958120ABE
:100D9400552403B405004001E4900D8D93120A819B
:0D0DA400743A120A81D203751904020BE0A3
:100E4500E709F60870FA8046E709F20870FA803E6D
:100E550088828C83E709F0A370FA807EE309F6089F
:100E650070FA8076E309F20870FA806E88828C83C6
:100E7500E309F0A370FA806289828A83E0A3F60809
:100E850070FA805689828A83E0A3F20870FA804A54
:100E950080D280FA80C680D4806580F2803180104F
:100EA50080A680EA809A80A880DA80E280CA8031B4
:100EB50089828A83ECFAE493A3C8C582C8CCC5832A
:100EC500CCF0A3C8C582C8CCC583CC70E9800D8998
:100ED500828A83E493A3F60870F9ECFAA9F0EDFB96
:100EE5002289828A83ECFAE0A3C8C582C8CCC5836F
:100EF500CCF0A3C8C582C8CCC583CC70EA80DD8997
:100F0500828A83E493A3F20870F980CE88F0ED24F9
:100F150002B4040050C4F582EB2402B4040050BAB4
:090F25002323458223900E9573ED
:100F2E00E3F5F009E208B5F06BDFF58067E3F5F065
:100F3E0009E608B5F05EDFF5805A87F009E608B5D8
:100F4E00F052DFF6804E87F009E208B5F046DFF684
:100F5E00804288828C8387F009E0A3B5F036DFF6F5
:100F6E00803288828C8387F009E493A3B5F025DF65
:100F7E00F5802188828C83E3F5F009E0A3B5F014A7
:100F8E00DFF5801088828C83E3F5F009E493A3B536
:100F9E00F002DFF402105D808780E9809080D480BB
:100FAE003E8015806E807E809D80B7808D80A38070
:100FBE00518074803C02106989828A83ECFAE49332
:100FCE00F5F0A3C8C582C8CCC583CCE493A3C8C52D
:100FDE0082C8CCC583CCB5F076DFE3DEE1807089C4
:100FEE00828A83E493F5F0A3E208B5F062DFF48021
:100FFE005E89828A83E0F5F0A3E608B5F051DFF54D
:10100E00804D89828A83E0F5F0A3E208B5F040DFD7
:10101E00F5803C89828A83E493F5F0A3E608B5F067
:10102E002EDFF4802A8002805789828A83ECFAE4CC
:10103E0093F5F0A3C8C582C8CCC583CCE0A3C8C5C0
:10104E0082C8CCC583CCB5F006DFE4DEE280007F3B
:10105E00FFB5F0020F2240027F012289828A83ECC3
:10106E00FAE0F5F0A3C8C582C8CCC583CCE0A3C80E
:10107E00C582C8CCC583CCB5F0D5DFE5DEE380CF25
:10108E0089828A83ECFAE0F5F0A3C8C582C8CCC584
:10109E0083CCE493A3C8C582C8CCC583CCB5F0AFCE
:1010AE00DFE4DEE280A988F0EF60010E4E60ABED6A
:1010BE002402B404005098F582EB2402B4040050CC
:0A10CE008E2323458223900FA573A3
:1010D800FAE6FB0808E6F925F0F618E6CA3AF62219
:00000001FF

